{
  "_format": "hh-sol-artifact-1",
  "contractName": "ForecastSubmission",
  "sourceName": "contracts/Forecast.sol",
  "abi": [
    {
      "inputs": [],
      "stateMutability": "nonpayable",
      "type": "constructor"
    },
    {
      "anonymous": false,
      "inputs": [
        {
          "indexed": false,
          "internalType": "address",
          "name": "user",
          "type": "address"
        },
        {
          "indexed": false,
          "internalType": "string",
          "name": "companyID",
          "type": "string"
        },
        {
          "indexed": false,
          "internalType": "string",
          "name": "reportingPeriod",
          "type": "string"
        },
        {
          "indexed": false,
          "internalType": "string",
          "name": "earningsEstimate",
          "type": "string"
        },
        {
          "indexed": false,
          "internalType": "string",
          "name": "revenueEstimate",
          "type": "string"
        }
      ],
      "name": "ForecastSubmitted",
      "type": "event"
    },
    {
      "inputs": [
        {
          "internalType": "uint256",
          "name": "",
          "type": "uint256"
        }
      ],
      "name": "forecasts",
      "outputs": [
        {
          "internalType": "address",
          "name": "user",
          "type": "address"
        },
        {
          "internalType": "string",
          "name": "companyID",
          "type": "string"
        },
        {
          "internalType": "string",
          "name": "reportingPeriod",
          "type": "string"
        },
        {
          "internalType": "string",
          "name": "earningsEstimate",
          "type": "string"
        },
        {
          "internalType": "string",
          "name": "revenueEstimate",
          "type": "string"
        }
      ],
      "stateMutability": "view",
      "type": "function"
    },
    {
      "inputs": [],
      "name": "getAllForecasts",
      "outputs": [
        {
          "components": [
            {
              "internalType": "address",
              "name": "user",
              "type": "address"
            },
            {
              "internalType": "string",
              "name": "companyID",
              "type": "string"
            },
            {
              "internalType": "string",
              "name": "reportingPeriod",
              "type": "string"
            },
            {
              "internalType": "string",
              "name": "earningsEstimate",
              "type": "string"
            },
            {
              "internalType": "string",
              "name": "revenueEstimate",
              "type": "string"
            }
          ],
          "internalType": "struct ForecastSubmission.Forecast[]",
          "name": "",
          "type": "tuple[]"
        }
      ],
      "stateMutability": "view",
      "type": "function"
    },
    {
      "inputs": [
        {
          "internalType": "string",
          "name": "_companyID",
          "type": "string"
        }
      ],
      "name": "hasSubmitted",
      "outputs": [
        {
          "internalType": "bool",
          "name": "",
          "type": "bool"
        }
      ],
      "stateMutability": "view",
      "type": "function"
    },
    {
      "inputs": [],
      "name": "owner",
      "outputs": [
        {
          "internalType": "address",
          "name": "",
          "type": "address"
        }
      ],
      "stateMutability": "view",
      "type": "function"
    },
    {
      "inputs": [
        {
          "internalType": "address",
          "name": "",
          "type": "address"
        },
        {
          "internalType": "string",
          "name": "",
          "type": "string"
        }
      ],
      "name": "senderCompanySubmitted",
      "outputs": [
        {
          "internalType": "bool",
          "name": "",
          "type": "bool"
        }
      ],
      "stateMutability": "view",
      "type": "function"
    },
    {
      "inputs": [],
      "name": "submissionEnd",
      "outputs": [
        {
          "internalType": "uint256",
          "name": "",
          "type": "uint256"
        }
      ],
      "stateMutability": "view",
      "type": "function"
    },
    {
      "inputs": [],
      "name": "submissionStart",
      "outputs": [
        {
          "internalType": "uint256",
          "name": "",
          "type": "uint256"
        }
      ],
      "stateMutability": "view",
      "type": "function"
    },
    {
      "inputs": [
        {
          "internalType": "string",
          "name": "_companyID",
          "type": "string"
        },
        {
          "internalType": "string",
          "name": "_reportingPeriod",
          "type": "string"
        },
        {
          "internalType": "string",
          "name": "_earningsEstimate",
          "type": "string"
        },
        {
          "internalType": "string",
          "name": "_revenueEstimate",
          "type": "string"
        }
      ],
      "name": "submitForecast",
      "outputs": [],
      "stateMutability": "nonpayable",
      "type": "function"
    }
  ],
  "bytecode": "0x608060405234801561001057600080fd5b5033600260006101000a81548173ffffffffffffffffffffffffffffffffffffffff021916908373ffffffffffffffffffffffffffffffffffffffff1602179055504260038190555062278d004261006891906100ac565b600481905550610102565b6000819050919050565b7f4e487b7100000000000000000000000000000000000000000000000000000000600052601160045260246000fd5b60006100b782610073565b91506100c283610073565b9250827fffffffffffffffffffffffffffffffffffffffffffffffffffffffffffffffff038211156100f7576100f661007d565b5b828201905092915050565b6114a380620001126000396000f3fe608060405234801561001057600080fd5b50600436106100885760003560e01c80638da5cb5b1161005b5780638da5cb5b146101295780639513b7de14610147578063dbd8951b14610165578063f0e9ee361461019957610088565b80630dad9dc81461008d578063480d2a73146100bd5780636023e674146100db578063769b3333146100f9575b600080fd5b6100a760048036038101906100a29190610d0f565b6101b5565b6040516100b49190610d73565b60405180910390f35b6100c5610227565b6040516100d29190610fa4565b60405180910390f35b6100e3610524565b6040516100f09190610fdf565b60405180910390f35b610113600480360381019061010e9190611026565b61052a565b6040516101209190610d73565b60405180910390f35b61013161056f565b60405161013e9190611091565b60405180910390f35b61014f610595565b60405161015c9190610fdf565b60405180910390f35b61017f600480360381019061017a91906110d8565b61059b565b60405161019095949392919061114f565b60405180910390f35b6101b360048036038101906101ae91906111be565b610821565b005b6000600160003373ffffffffffffffffffffffffffffffffffffffff1673ffffffffffffffffffffffffffffffffffffffff1681526020019081526020016000208260405161020491906112d1565b908152602001604051809103902060009054906101000a900460ff169050919050565b60606000805480602002602001604051908101604052809291908181526020016000905b8282101561051b57838290600052602060002090600502016040518060a00160405290816000820160009054906101000a900473ffffffffffffffffffffffffffffffffffffffff1673ffffffffffffffffffffffffffffffffffffffff1673ffffffffffffffffffffffffffffffffffffffff1681526020016001820180546102d490611317565b80601f016020809104026020016040519081016040528092919081815260200182805461030090611317565b801561034d5780601f106103225761010080835404028352916020019161034d565b820191906000526020600020905b81548152906001019060200180831161033057829003601f168201915b5050505050815260200160028201805461036690611317565b80601f016020809104026020016040519081016040528092919081815260200182805461039290611317565b80156103df5780601f106103b4576101008083540402835291602001916103df565b820191906000526020600020905b8154815290600101906020018083116103c257829003601f168201915b505050505081526020016003820180546103f890611317565b80601f016020809104026020016040519081016040528092919081815260200182805461042490611317565b80156104715780601f1061044657610100808354040283529160200191610471565b820191906000526020600020905b81548152906001019060200180831161045457829003601f168201915b5050505050815260200160048201805461048a90611317565b80601f01602080910402602001604051908101604052809291908181526020018280546104b690611317565b80156105035780601f106104d857610100808354040283529160200191610503565b820191906000526020600020905b8154815290600101906020018083116104e657829003601f168201915b5050505050815250508152602001906001019061024b565b50505050905090565b60035481565b6001602052816000526040600020818051602081018201805184825260208301602085012081835280955050505050506000915091509054906101000a900460ff1681565b600260009054906101000a900473ffffffffffffffffffffffffffffffffffffffff1681565b60045481565b600081815481106105ab57600080fd5b90600052602060002090600502016000915090508060000160009054906101000a900473ffffffffffffffffffffffffffffffffffffffff16908060010180546105f490611317565b80601f016020809104026020016040519081016040528092919081815260200182805461062090611317565b801561066d5780601f106106425761010080835404028352916020019161066d565b820191906000526020600020905b81548152906001019060200180831161065057829003601f168201915b50505050509080600201805461068290611317565b80601f01602080910402602001604051908101604052809291908181526020018280546106ae90611317565b80156106fb5780601f106106d0576101008083540402835291602001916106fb565b820191906000526020600020905b8154815290600101906020018083116106de57829003601f168201915b50505050509080600301805461071090611317565b80601f016020809104026020016040519081016040528092919081815260200182805461073c90611317565b80156107895780601f1061075e57610100808354040283529160200191610789565b820191906000526020600020905b81548152906001019060200180831161076c57829003601f168201915b50505050509080600401805461079e90611317565b80601f01602080910402602001604051908101604052809291908181526020018280546107ca90611317565b80156108175780601f106107ec57610100808354040283529160200191610817565b820191906000526020600020905b8154815290600101906020018083116107fa57829003601f168201915b5050505050905085565b600354421015801561083557506004544211155b610874576040517f08c379a000000000000000000000000000000000000000000000000000000000815260040161086b906113bb565b60405180910390fd5b600160003373ffffffffffffffffffffffffffffffffffffffff1673ffffffffffffffffffffffffffffffffffffffff168152602001908152602001600020846040516108c191906112d1565b908152602001604051809103902060009054906101000a900460ff161561091d576040517f08c379a00000000000000000000000000000000000000000000000000000000081526004016109149061144d565b60405180910390fd5b60018060003373ffffffffffffffffffffffffffffffffffffffff1673ffffffffffffffffffffffffffffffffffffffff1681526020019081526020016000208560405161096b91906112d1565b908152602001604051809103902060006101000a81548160ff02191690831515021790555061099c848484846109a2565b50505050565b60006040518060a001604052803373ffffffffffffffffffffffffffffffffffffffff168152602001868152602001858152602001848152602001838152509050600081908060018154018082558091505060019003906000526020600020906005020160009091909190915060008201518160000160006101000a81548173ffffffffffffffffffffffffffffffffffffffff021916908373ffffffffffffffffffffffffffffffffffffffff1602179055506020820151816001019080519060200190610a72929190610b12565b506040820151816002019080519060200190610a8f929190610b12565b506060820151816003019080519060200190610aac929190610b12565b506080820151816004019080519060200190610ac9929190610b12565b5050507f6153e0539d46bea85ef370f097f3525a7f2d2d8b7ef9010742153dbcffff33a63386868686604051610b0395949392919061114f565b60405180910390a15050505050565b828054610b1e90611317565b90600052602060002090601f016020900481019282610b405760008555610b87565b82601f10610b5957805160ff1916838001178555610b87565b82800160010185558215610b87579182015b82811115610b86578251825591602001919060010190610b6b565b5b509050610b949190610b98565b5090565b5b80821115610bb1576000816000905550600101610b99565b5090565b6000604051905090565b600080fd5b600080fd5b600080fd5b600080fd5b6000601f19601f8301169050919050565b7f4e487b7100000000000000000000000000000000000000000000000000000000600052604160045260246000fd5b610c1c82610bd3565b810181811067ffffffffffffffff82111715610c3b57610c3a610be4565b5b80604052505050565b6000610c4e610bb5565b9050610c5a8282610c13565b919050565b600067ffffffffffffffff821115610c7a57610c79610be4565b5b610c8382610bd3565b9050602081019050919050565b82818337600083830152505050565b6000610cb2610cad84610c5f565b610c44565b905082815260208101848484011115610cce57610ccd610bce565b5b610cd9848285610c90565b509392505050565b600082601f830112610cf657610cf5610bc9565b5b8135610d06848260208601610c9f565b91505092915050565b600060208284031215610d2557610d24610bbf565b5b600082013567ffffffffffffffff811115610d4357610d42610bc4565b5b610d4f84828501610ce1565b91505092915050565b60008115159050919050565b610d6d81610d58565b82525050565b6000602082019050610d886000830184610d64565b92915050565b600081519050919050565b600082825260208201905092915050565b6000819050602082019050919050565b600073ffffffffffffffffffffffffffffffffffffffff82169050919050565b6000610de582610dba565b9050919050565b610df581610dda565b82525050565b600081519050919050565b600082825260208201905092915050565b60005b83811015610e35578082015181840152602081019050610e1a565b83811115610e44576000848401525b50505050565b6000610e5582610dfb565b610e5f8185610e06565b9350610e6f818560208601610e17565b610e7881610bd3565b840191505092915050565b600060a083016000830151610e9b6000860182610dec565b5060208301518482036020860152610eb38282610e4a565b91505060408301518482036040860152610ecd8282610e4a565b91505060608301518482036060860152610ee78282610e4a565b91505060808301518482036080860152610f018282610e4a565b9150508091505092915050565b6000610f1a8383610e83565b905092915050565b6000602082019050919050565b6000610f3a82610d8e565b610f448185610d99565b935083602082028501610f5685610daa565b8060005b85811015610f925784840389528151610f738582610f0e565b9450610f7e83610f22565b925060208a01995050600181019050610f5a565b50829750879550505050505092915050565b60006020820190508181036000830152610fbe8184610f2f565b905092915050565b6000819050919050565b610fd981610fc6565b82525050565b6000602082019050610ff46000830184610fd0565b92915050565b61100381610dda565b811461100e57600080fd5b50565b60008135905061102081610ffa565b92915050565b6000806040838503121561103d5761103c610bbf565b5b600061104b85828601611011565b925050602083013567ffffffffffffffff81111561106c5761106b610bc4565b5b61107885828601610ce1565b9150509250929050565b61108b81610dda565b82525050565b60006020820190506110a66000830184611082565b92915050565b6110b581610fc6565b81146110c057600080fd5b50565b6000813590506110d2816110ac565b92915050565b6000602082840312156110ee576110ed610bbf565b5b60006110fc848285016110c3565b91505092915050565b600082825260208201905092915050565b600061112182610dfb565b61112b8185611105565b935061113b818560208601610e17565b61114481610bd3565b840191505092915050565b600060a0820190506111646000830188611082565b81810360208301526111768187611116565b9050818103604083015261118a8186611116565b9050818103606083015261119e8185611116565b905081810360808301526111b28184611116565b90509695505050505050565b600080600080608085870312156111d8576111d7610bbf565b5b600085013567ffffffffffffffff8111156111f6576111f5610bc4565b5b61120287828801610ce1565b945050602085013567ffffffffffffffff81111561122357611222610bc4565b5b61122f87828801610ce1565b935050604085013567ffffffffffffffff8111156112505761124f610bc4565b5b61125c87828801610ce1565b925050606085013567ffffffffffffffff81111561127d5761127c610bc4565b5b61128987828801610ce1565b91505092959194509250565b600081905092915050565b60006112ab82610dfb565b6112b58185611295565b93506112c5818560208601610e17565b80840191505092915050565b60006112dd82846112a0565b915081905092915050565b7f4e487b7100000000000000000000000000000000000000000000000000000000600052602260045260246000fd5b6000600282049050600182168061132f57607f821691505b60208210811415611343576113426112e8565b5b50919050565b7f5375626d697373696f6e20706572696f642069732063757272656e746c79206360008201527f6c6f7365642e0000000000000000000000000000000000000000000000000000602082015250565b60006113a5602683611105565b91506113b082611349565b604082019050919050565b600060208201905081810360008301526113d481611398565b9050919050565b7f53656e6465722068617320616c7265616479207375626d69747465642061206660008201527f6f72656361737420666f72207468697320636f6d70616e792e00000000000000602082015250565b6000611437603983611105565b9150611442826113db565b604082019050919050565b600060208201905081810360008301526114668161142a565b905091905056fea264697066735822122075a52db25a5e197cd19d547bae1411f1b05ebbff0c620346abb3f5ccff4cb51c64736f6c634300080b0033",
  "linkReferences": {},
  "deployedLinkReferences": {}
}